:100000000C945E000C94CA030C94A3030C94860019
:100010000C9486000C9486000C9486000C94860048
:100020000C9486000C9486000C9486000C94860038
:100030000C9486000C9486000C9486000C94860028
:100040000C9459030C9486000C9427030C94010320
:100050000C9486000C9486000C9486000C94860008
:100060000C9486000C948600000000080002010039
:100070000003040700000000000000000000000072
:10008000250028002B0000000000240027002A0083
:10009000040404040404040402020202020203032E
:1000A0000303030301020408102040800102040836
:1000B0001020010204081020F103720611241FBE53
:1000C000CFEFD8E0DEBFCDBF23E0ACE9B1E001C0A7
:1000D0001D92A13BB207E1F711E0A0E0B1E0ECE036
:1000E000F2E102C005900D92AC39B107D9F710E0EA
:1000F000CDE5D0E004C02197FE010E94EE06CC358C
:10010000D107C9F70E9459040C94F9080C94000017
:10011000CF92DF92EF92FF920F931F93CF93DF93D3
:100120006C017A018B01C0E0D0E0CE15DF0581F0D3
:10013000D8016D918D01D601ED91FC910190F08176
:10014000E02DC6010995892B11F02196EECF7E0195
:10015000C701DF91CF911F910F91FF90EF90DF903A
:10016000CF900895089580E090E00895FC01538DAC
:10017000448D252F30E0842F90E0821B930B541781
:1001800010F0CF96089501970895FC01918D828D0E
:10019000981761F0828DDF01A80FB11D5D968C91DB
:1001A000928D9F5F9F73928F90E008958FEF9FEFE6
:1001B0000895FC01918D828D981731F0828DE80FA2
:1001C000F11D858D90E008958FEF9FEF0895FC015C
:1001D000918D228D892F90E0805C9F4F821B910929
:1001E0008F739927089584ED92E00E94E70021E043
:1001F000892B09F420E0822F0895FC01848DDF0112
:10020000A80FB11DA35ABF4F2C91848D90E0019689
:100210008F739927848FA689B7892C93A089B18978
:100220008C91837080648C93938D848D981306C019
:100230000288F389E02D80818F7D80830895EF927D
:10024000FF920F931F93CF93DF93EC0181E0888F90
:100250009B8D8C8D981305C0E889F989808185FD77
:1002600026C0F62E0B8D10E00F5F1F4F0F73112766
:10027000E02E8C8DE8120CC00FB607FCFACFE8898F
:10028000F989808185FFF5CFCE010E94FD00F1CF75
:100290008B8DFE01E80FF11DE35AFF4FF0829FB7EF
:1002A000F8940B8FEA89FB89808180620AC09FB72E
:1002B000F894EE89FF896083E889F98980818370E9
:1002C000806480839FBF81E090E0DF91CF911F9198
:1002D0000F91FF90EF900895CF93DF93EC01888DFD
:1002E0008823C9F0EA89FB89808185FD05C0A8893A
:1002F000B9898C9186FD0FC00FB607FCF5CF8081C0
:1003000085FFF2CFA889B9898C9185FFEDCFCE0109
:100310000E94FD00E7CFDF91CF91089580E090E04B
:10032000892B29F00E94F30081110C94000008959C
:1003300090E0FC01E859FF4F2491FC01EC55FF4F80
:100340003491FC01E057FF4FE491EE2309F43CC0E7
:10035000222339F1233091F038F42130A9F02230F2
:1003600001F584B58F7D12C0273091F02830A1F0BF
:100370002430B9F4809180008F7D03C0809180008B
:100380008F77809380000DC084B58F7784BD09C0BE
:100390008091B0008F7703C08091B0008F7D8093F3
:1003A000B000F0E0EE0FFF1FE458FF4FA591B491AD
:1003B0009FB7F894611104C08C913095382302C026
:1003C000EC913E2B3C939FBF08950895CF93DF930C
:1003D0002FB7F8948091020290910302A091040239
:1003E000B091050246B5A89B05C04F3F19F0019694
:1003F000A11DB11D2FBF2091000230910102BA2F23
:10040000A92F982F8827840F911DA11DB11DE2E00F
:10041000880F991FAA1FBB1FEA95D1F7F901EE0FAC
:10042000FF1FE456FE4F91838083A901440F551F9F
:10043000440F551F1216130694F4EA01C55FDD4FF1
:10044000220F331FF901E656FE4F20813181821BB6
:10045000930BA0E0B0E088839983AA83BB83FA0161
:10046000E55FFD4F80819181A281B381895C9243D8
:10047000A109B109873E9340A105B10530F481E09F
:1004800090E09093010280930002E0910002F091CD
:100490000102EE0FFF1FEE0FFF1FE55FFD4F808192
:1004A0009181A281B381895F9A42A109B109873EF6
:1004B0009340A105B10530F48FEF9FEF90930102B7
:1004C0008093000280910002909101020196823295
:1004D00091052CF4909301028093000207C01092C2
:1004E00001021092000281E08093D302DF91CF914C
:1004F0000895CF93DF93EC0188819981009711F0E3
:100500000E948C07198218821D821C821B821A820B
:10051000DF91CF910895009769F0FC0101900020D0
:10052000E9F73197AF01481B590BBC0184ED92E00C
:100530000C94880080E090E008950E94DB080F93FF
:100540001F93CF93DF93EC0188819981009729F065
:100550002A813B812617370788F48B016F5F7F4F15
:100560000E941508009761F0998388831B830A8392
:100570002C813D81232B11F4FC01108281E001C00C
:1005800080E0DF91CF911F910F910895EF92FF923C
:100590000F931F93CF93DF93EC01198218821B8274
:1005A0001A821D821C826115710521F18B01FB01EC
:1005B00001900020E9F731977F01E61AF70AB701A9
:1005C0000E949F02811109C0CE01DF91CF911F913E
:1005D0000F91FF90EF900C947902FD82EC82B801AC
:1005E00088819981DF91CF911F910F91FF90EF90BA
:1005F0000C94F208DF91CF911F910F91FF90EF9033
:1006000008951F920F920FB60F9211242F933F93CC
:100610004F935F936F937F938F939F93AF93BF930A
:10062000EF93FF9384ED92E00E94FD00FF91EF9124
:10063000BF91AF919F918F917F916F915F914F91FA
:100640003F912F910F900FBE0F901F9018951F9202
:100650000F920FB60F9211242F938F939F93EF93C6
:10066000FF93E091E402F091E5028081E091EA02DB
:10067000F091EB0282FD12C090818091ED028F5FBC
:100680008F732091EE02821751F0E091ED02F0E0BD
:10069000EC52FD4F958F8093ED0201C08081FF9158
:1006A000EF919F918F912F910F900FBE0F901F9000
:1006B00018951F920F920FB60F9211242F933F930C
:1006C0008F939F93AF93BF938091070290910802FD
:1006D000A0910902B0910A023091060223E0230F93
:1006E0002D3720F40196A11DB11D05C026E8230F6A
:1006F0000296A11DB11D20930602809307029093DC
:100700000802A0930902B0930A028091020290911C
:100710000302A0910402B09105020196A11DB11D32
:100720008093020290930302A0930402B093050207
:10073000BF91AF919F918F913F912F910F900FBEDD
:100740000F901F9018951F920F920FB60F921124C1
:100750002F933F934F935F936F937F938F939F93C9
:10076000AF93BF93EF93FF93E0910201F0910301E8
:100770000995FF91EF91BF91AF919F918F917F91DB
:100780006F915F914F913F912F910F900FBE0F90FE
:100790001F9018951F920F920FB60F9211242F934E
:1007A0003F934F935F936F937F938F939F93AF93F9
:1007B000BF93EF93FF93E0910001F0910101099540
:1007C000FF91EF91BF91AF919F918F917F916F9129
:1007D0005F914F913F912F910F900FBE0F901F90FF
:1007E0001895E4EDF2E01382128288EE93E0A0E027
:1007F000B0E084839583A683B7838EE291E09183F2
:10080000808385EC90E09587848784EC90E09787DF
:10081000868780EC90E0918B808B81EC90E0938BCD
:10082000828B82EC90E0958B848B86EC90E0978BAA
:10083000868B118E128E138E148E6CE371E081E71D
:1008400093E00E94C60265E471E087E793E00E94AE
:10085000C6026EE471E08DE793E00E94C60267E590
:1008600071E083E893E00E94C60260E671E089E8E7
:1008700093E00E94C60269E671E08FE893E00E946F
:10088000C60262E771E085E993E00E94C6026BE769
:1008900071E08BE993E00E94C60264E871E081EAAE
:1008A00093E00E94C6026DE871E087EA93E00C9441
:1008B000C602CF93DF93CDB7DEB7A0970FB6F894FB
:1008C000DEBF0FBECDBF789484B5826084BD84B591
:1008D000816084BD85B5826085BD85B5816085BD3B
:1008E00080916E00816080936E00109281008091F3
:1008F000810082608093810080918100816080937B
:100900008100809180008160809380008091B1009F
:1009100084608093B1008091B00081608093B000CA
:1009200080917A00846080937A0080917A0082605E
:1009300080937A0080917A00816080937A00809120
:100940007A00806880937A001092C10086EE91E070
:100950009093010180930001809169008C7F8260F7
:1009600080936900E89A23E030E0F901EC55FF4FED
:100970004491F901E057FF4F8491882399F090E06A
:10098000880F991FFC01EA57FF4FA591B491FC0114
:10099000E458FF4F859194918FB7F894EC91E42B34
:1009A000EC938FBF2F5F3F4F2E303105F1F6E09172
:1009B000E402F091E50282E08083E091E002F091B0
:1009C000E1021082E091E202F091E30280E1808393
:1009D0001092EC02E091E802F091E90286E0808357
:1009E000E091E602F091E702808180618083E091EE
:1009F000E602F091E702808188608083E091E60260
:100A0000F091E702808180688083E091E602F091B6
:100A1000E70280818F7D80837AE0E72E71E0F72EF8
:100A200060E083E00E94980160E084E00E94980109
:100A30001DE063E0C62ED12CF701808190E00C2CE4
:100A400002C0959587950A94E2F780FF07C061E0A0
:100A5000812F0E94980186E991E006C060E0812F15
:100A60000E94980187E691E00E948B0261E085E098
:100A70000E94980160E085E00E94980161E083E0B7
:100A80000E94980161E084E00E949801F1E0CF1A91
:100A9000D1081150193081F62FEFE21AF20A37E12E
:100AA000E31631E0F30609F0BBCF53E7252E52E001
:100AB000352ECE0101967C018091D302882309F462
:100AC0000EC16AE971E0CE0149960E94C6021092F9
:100AD000D30243E5C42E42E0D42EF60181919191D8
:100AE000A191B1916F010D8D1E8D0F5F1F4FB80148
:100AF000813D9740A105B10568F0CE0149960E945D
:100B00009F028823C9F0298D3A8D8D8D9E8D66E9CF
:100B100071E00CC0CE0149960E949F02882361F0CB
:100B2000298D3A8D8D8D9E8D67E671E0820F931F22
:100B30000E94F2081E8F0D8F2C143D0471F631E7D0
:100B4000A32E33E0B32E00E010E0F50124813581BF
:100B50008D8D9E8D2817390769F00F5F1F4FF6E0C6
:100B6000AF0EB11C0A30110581F7898D9A8D0E9454
:100B70008C07B5C0F50180819181698D7A8D0097D0
:100B800019F061157105A1F46115710549F0232B68
:100B900099F0FB01808190E09195819591090AC0BF
:100BA000009751F0232B41F0FC01808190E002C0BE
:100BB0000E94E908892B89F61C8A1B8A1E8A1D8AD5
:100BC000188E1F8A4AE0B701C8010E948206F70109
:100BD00001900020E9F731976F01CE18DF08B601C8
:100BE000CE0143960E949F02811105C0CE0143961B
:100BF0000E94790207C0D88ECF8AB7018B899C8961
:100C00000E94F2084F89588D6B897C8984ED92E0AF
:100C10000E94880088E991E00E948B028B899C8960
:100C20000E948C073801F1E06F1AF0E87F0A660C29
:100C3000771CC12CD12C61E083E00E94980160E018
:100C400084E00E949801C601860D971D9C012A5ED2
:100C50003E4F38A32F8F8DE0582E93E0892E912C94
:100C6000EF8DF8A1808190E0082C02C095958795C2
:100C70000A94E2F780FF07C061E0852D0E94980189
:100C800086E991E006C060E0852D0E94980187E624
:100C900091E00E948B0261E085E00E94980160E093
:100CA00085E00E94980161E083E00E94980161E084
:100CB00084E00E949801F1E08F1A91085A9429E08B
:100CC0005212CECF8BE891E00197F1F73FEFC31AB4
:100CD000D30A82E0C816D10409F43FCFACCF0E94FA
:100CE0008E01EACECF93DF93CDEAD3E026978881B9
:100CF00099810E948C0783E0C137D807B9F7DF914B
:100D0000CF910895BB274A3031F4992322F4BDE2F4
:100D1000909581959F4F0C948E06BB27FB0155271C
:100D2000AA27880F991FAA1FA41710F0A41B839548
:100D30005051B9F7A05DAA3308F0A95DA1930097BF
:100D400079F7B111B1931192CB010C94A706DC0194
:100D5000FC01672F71917723E1F7329704C07C91F2
:100D60006D9370836291AE17BF07C8F308952F92F9
:100D70003F924F925F926F927F928F929F92AF922B
:100D8000BF92CF92DF92EF92FF920F931F93CF9378
:100D9000DF93CDB7DEB7CA1BDB0B0FB6F894DEBF0F
:100DA0000FBECDBF09942A88398848885F846E8435
:100DB0007D848C849B84AA84B984C884DF80EE807F
:100DC000FD800C811B81AA81B981CE0FD11D0FB688
:100DD000F894DEBF0FBECDBFED010895EE0FFF1FEB
:100DE0000590F491E02D09940F931F93CF93DF9317
:100DF0008230910510F482E090E0E091AF03F09131
:100E0000B00320E030E0A0E0B0E0309719F140817D
:100E100051810281138148175907C8F0841795073B
:100E200069F4109731F012960C93129713961C9355
:100E300027C00093AF031093B00322C021153105E2
:100E400019F04217530718F49A01BD01EF01DF01B1
:100E5000F801DBCF21153105F9F0281B390B2430BF
:100E6000310580F48A819B816115710521F0FB01B8
:100E70009383828304C09093B0038093AF03FE01F9
:100E8000329644C0FE01E20FF31F819391932250EA
:100E90003109398328833AC02091AD033091AE03E4
:100EA000232B41F420910601309107013093AE03CA
:100EB0002093AD03209104013091050121153105E6
:100EC00041F42DB73EB74091080150910901241B10
:100ED000350BE091AD03F091AE03E217F307A0F4F8
:100EE0002E1B3F0B2817390778F0AC014E5F5F4F80
:100EF0002417350748F04E0F5F1F5093AE03409301
:100F0000AD038193919302C0E0E0F0E0CF01DF9167
:100F1000CF911F910F910895CF93DF93009709F41C
:100F200081C0FC01329713821282A091AF03B0916D
:100F3000B003109781F420813181820F931F20919B
:100F4000AD033091AE032817390751F5F093AE0386
:100F5000E093AD0367C0ED0120E030E0CE17DF077E
:100F600040F44A815B819E0141155105F1F0EA018F
:100F7000F5CFD383C28340815181840F951FC81759
:100F8000D90759F488819981840F951F029691831E
:100F900080838A819B81938382832115310529F483
:100FA000F093B003E093AF033DC0E901FB83EA8314
:100FB00049915991C40FD51FEC17FD0761F4808149
:100FC0009181840F951F0296E9019983888382811C
:100FD00093819B838A83E0E0F0E012968D919C914F
:100FE0001397009719F0FD01DC01F7CF8D919C91CB
:100FF00011979D012E5F3F4F820F931F2091AD03EC
:101000003091AE032817390769F4309729F410920C
:10101000B0031092AF0302C013821282B093AE03EA
:10102000A093AD03DF91CF910895A0E0B0E0EBE194
:10103000F8E00C94BB06EC01009721F4CB010E9470
:10104000F406B4C0FC01E60FF71F9C0122503109E1
:10105000E217F30708F4A8C0D9010D911C9111976C
:1010600006171707B0F00530110508F49BC0C8013A
:1010700004978617970708F495C002501109061BBC
:10108000170B019311936D937C93CF010E948C07F2
:1010900089C05B01A01AB10A4C01800E911EA0917B
:1010A000AF03B091B003612C712CE12CF12C10979F
:1010B00009F446C08D919C911197A815B905B1F519
:1010C0006C0142E0C40ED11CCA14DB0478F14C015F
:1010D0008A189B08640142E0C40ED11C1296BC9091
:1010E00012971396AC91B5E0CB16D10440F0B282C2
:1010F000A38391828082D9016D937C9309C00E5F96
:101100001F4F800F911FF90191838083EB2DFA2FE0
:10111000E114F10431F0D7011396FC93EE9312978A
:1011200041C0F093B003E093AF033CC0681679066A
:1011300008F43C017D0112960D90BC91A02DB7CF13
:101140008091AD039091AE0388169906E1F466167E
:101150007706C8F48091040190910501009741F44D
:101160008DB79EB74091080150910901841B950BE2
:10117000E817F907C8F4F093AE03E093AD03F90163
:10118000718360830FC0CB010E94F4067C0100973D
:1011900059F0A801BE010E94E008CE010E948C0710
:1011A000C70104C0CE0102C080E090E0CDB7DEB739
:1011B000EEE00C94D70681E090E0F8940C94F908E6
:1011C000FB01DC0102C001900D9241505040D8F764
:1011D0000895FB01DC018D91019080190110D9F374
:1011E000990B0895FB01DC0101900D920020E1F7BD
:1011F000089510E0CDE5D0E004C0FE010E94EE06A7
:0C1200002196CE35D107C9F7F894FFCF36
:10120C00E501E5010000B1038000030303020208BD
:10121C000006000C0800030103020303030403058A
:10122C000306030703080309040F000000001F0155
:10123C008800B6006C01E700C500D90030313130B0
:10124C0031303030003030313130303030003030EF
:10125C0030313130303000303131313130313000DB
:10126C00303030313030303000303031313130309E
:10127C0030003031303131303130003031303030BD
:10128C0030313000303130303130313000303130AD
:0C129C0031303031300031000D0A00000C
:00000001FF
